:020000040800F2
:10000000B811002089020008A9040008AB04000808
:10001000AF040008B3040008B704000800000000A3
:10002000000000000000000000000000BB04000809
:10003000BD04000800000000BF040008C10400085F
:10004000A3020008A3020008A3020008A3020008FC
:10005000A3020008A3020008A3020008A3020008EC
:10006000A3020008A3020008A3020008A3020008DC
:10007000A3020008A3020008A3020008A3020008CC
:10008000A3020008A3020008A3020008A3020008BC
:10009000A3020008A3020008A3020008A3020008AC
:1000A000A3020008A3020008A3020008A30200089C
:1000B000A3020008A3020008A3020008A30200088C
:1000C000A3020008A3020008A3020008A30200087C
:1000D000A30200082D060008A3020008A3020008DE
:1000E000A3020008A3020008A3020008A30200085C
:1000F000A3020008A3020008A3020008A30200084C
:10010000A3020008A3020008A3020008A30200083B
:10011000A3020008A3020008A3020008A30200082B
:10012000A3020008A3020008A3020008A30200081B
:1001300000F002F800F099F80AA090E8000C824460
:100140008344AAF10107DA4501D100F08EF8AFF23D
:10015000090EBAE80F0013F0010F18BFFB1A43F0A5
:1001600001031847F864000018650000103A24BF26
:1001700078C878C1FAD8520724BF30C830C144BF0C
:1001800004680C607047000000230024002500264E
:10019000103A28BF78C1FBD8520728BF30C148BFEA
:1001A0000B6070476E2904F0EB84702904F03586EB
:1001B000662906F0C181652906F0BE81672906F02F
:1001C000BB816129AFF3008003681B0A28BF41F09F
:1001D0008001692904F09884642904F095847529C4
:1001E00004F092846F2904F0C385782904F0018615
:1001F000E92904F05D85E42904F05A85F52904F025
:100200005785EF2904F0C085F82904F000860368BB
:10021000DB0928BF41F08001632905F0FE817329C5
:1002200005F00382E32905F00E82F32905F013821D
:10023000002070471FB59DE8030004F003FF04F0A1
:10024000E5FE04000020002105F088FF401C6060EE
:100250000020002105F098FFE06004F07FFB1FBD47
:1002600010B5002004F0A8FE10BD05F01DFA1146DF
:10027000FFF7E0FF00F008FA05F004FB03B4FFF716
:10028000EFFF03BC00F033F90948804709480047F5
:10029000FEE7FEE7FEE7FEE7FEE7FEE7FEE7FEE736
:1002A000FEE7FEE704480549054A064B7047000093
:1002B000A703000831010008B8070020B81100208A
:1002C000B8090020B80900200CB50020019000906A
:1002D0006C48006840F480306A49086000BF694893
:1002E000006800F4003000900198401C01900098D4
:1002F00018B90198B0F5A06FF1D16248006800F418
:10030000003010B10120009001E000200090009822
:10031000012843D15C48006840F010005A49086049
:100320000846006820F0030008600846006840F0B6
:1003300002000860534840685249486008464068D7
:1003400048600846406840F480604860084640685D
:1003500020F47C1048600846406840F4E81048608B
:100360000846006840F08070086000BF454800689B
:1003700000F000700028F9D04248406820F00300E7
:10038000404948600846406840F00200486000BFAD
:100390003C48406800F00C000828F9D10CBD10B5AD
:1003A000FFF792FF10BD10B53648006840F001001D
:1003B000344908600846406834490840314948607B
:1003C00008460068324908402E490860084600681F
:1003D00020F4802008600846406820F4FE00486051
:1003E0004FF41F008860FFF7DAFF4FF000602949E3
:1003F000086010BD10B5002100200022214B5B6871
:1004000003F00C0121B1042906D0082928D107E006
:10041000214B224C236027E01F4B204C236023E01C
:10042000184B5B6803F47010164B5B6803F4803262
:10043000022303EB904022B9194B4343174C23602E
:100440000DE0104B5B6803F4003323B1144B4343BE
:10045000124C236003E0104B4343104C236003E035
:100460000D4B0E4C236000BF00BF064B5B68C3F30F
:1004700003130C4CE15C094B1B68CB40074C236019
:1004800010BD000000100240002002400000FFF8F4
:10049000FFFFF6FE08ED00E000127A0000000020E9
:1004A00000093D0004000020704700BFFEE700BFC8
:1004B000FEE700BFFEE700BFFEE7704770477047EA
:1004C000704770B504460D46204600F07EF870BDBA
:1004D00010B5044600F09FF810BD01464FF0FF3004
:1004E000704710B50446204600F06FF810BD00BFFD
:1004F000FEE7000000B587B04FF4C06000F0D6FD05
:100500000121880303F0B5F90121052003F0B1F9B9
:100510004FF40070ADF8080003208DF80A00182091
:100520008DF80B0002A9554801F0B4FB4FF4806030
:10053000ADF8080003208DF80A0004208DF80B00A8
:1005400002A94E4801F0A6FB25208DF804000120E9
:100550008DF805008DF806008DF8070001A800F061
:10056000C0FD0021464803F044FC4FF4E130039005
:100570000020ADF81000ADF81200ADF81400ADF891
:1005800018000C20ADF8160000203E4948600860B5
:100590004FF47A70886003A9394803F0E6FA002224
:1005A00040F22771364803F051FC002240F22551F9
:1005B000334803F04BFC4021314804F02FF801216F
:1005C0002F4803F016FC07B000BD10B504462D48B7
:1005D0004068401C2B498968B0FBF1F201FB120016
:1005E00028490968884214D0264842680C3084544F
:1005F0000C384068401C23498968B0FBF1F201FBCC
:10060000120020494860012240F227711C4803F083
:100610001DFC204610BD00BF1948008800F02000D6
:100620000028F9D01648001D0088704710B540F228
:100630002771134804F02FF8F8B1124800681149E7
:100640004968884213D00F4801680C30445C0C386C
:100650000068401C0B498968B0FBF1F201FB1200F5
:10066000084908602146064803F0A7FD05E000227E
:1006700040F22771024803F0E9FB10BD0008014079
:1006800000380140C000002000F09EFC17491848C7
:1006900000F0C5F8FFF72EFF142116A000F03EF879
:1006A00011E06423174A0021114800F0C9F850B93D
:1006B0006423154A00210E4800F066F918B9124962
:1006C00012A000F02BF8ECE700BFFEE738B54FF4BE
:1006D000807008230122A0210090054800F078F8DE
:1006E00004460C4A0C4904F0EDF838BD80000020A7
:1006F00018050020697427732073686974202564C5
:10070000200D0A001C000020B40400202D2D3E25E1
:100710007300000000000008FD0700080FB408B5D2
:1007200003A800904FF400711948009B029A04F04E
:1007300099F8174804F0B0F80020009001B05DF877
:1007400014FB04460D462A46214612A0FFF7E6FF99
:1007500000BFFEE770472DE9F04705460C462046EE
:1007600005F00AFE8146284605F006FE82464FF057
:100770007E5105F015FE8046494605F01BFD0746F3
:100780000A4905F00DFE064605F0D6FDBDE8F087E6
:100790002C05002066696C653A2025732C206C6955
:1007A0006E653A202564200D0A0000000000C84252
:1007B000064901607047704770B504462046FFF750
:1007C000FAFF054605F0ABFC70BD00001C66000892
:1007D0002DE9F04104460D4616461F46DDF8188007
:1007E0002046FFF7E5FF0446A7482060257366739F
:1007F0006760C4F808802046BDE8F08110B5044663
:100800002046FFF7D8FF0446204610BD70B50446C9
:100810002046FFF7F3FF054605F081FC70BD30B5BB
:1008200085B005460C462C61142204F1100168467F
:1008300004F05FF894E80F0000F0ACF905B030BDAB
:100840002DE9F84F04460F4690461E46A068B04278
:1008500003D261218DA0FFF774FFB8F1000F03D11F
:1008600062218AA0FFF76DFF4FF00009CB46CA4610
:100870006068B7FBF0F100FB1170A8BB6068B6FBC5
:10088000F0F01FFA80FB0020009013E0D4E9000391
:1008900042463946D0F818C02046E047054615B113
:1008A0002846BDE8F88F6068074460688044009877
:1008B000401C009000985845E8D36068B6FBF0F102
:1008C00000FB11601FFA80FABAF1000F5AD02068BD
:1008D000534642463946D0F818C02046E047054600
:1008E000002D4FD02846DCE7FFE76068B7FBF0F14A
:1008F00000FB1170A188081A1FFA80F920684B4686
:1009000042463946D0F818C02046E04705460DB1AA
:100910002846C6E7A6EB09006168B0FBF1F01FFAB4
:1009200080FB0020009012E0D4E9000342463946E3
:10093000D0F818C02046E04705460DB12846B0E77C
:1009400060680744606880440098401C00900098EC
:100950005845E9D3A6EB09006168B0FBF1F201FB51
:1009600012001FFA80FABAF1000F0BD0206853462C
:1009700042463946D0F818C02046E04705460DB13A
:1009800028468EE700208CE72DE9FC4704460D46FB
:1009900016461F46B8B2CDE90060637BAAB2217B40
:1009A000206900F059FA8146B9F1000F04D04FF0E8
:1009B00002084046BDE8FC8700BFFBE72DE9F04197
:1009C00004464FF47A774FF0000807E0381EA7F18D
:1009D000010703D101252846BDE8F0812169086897
:1009E0004FF4003102F014FB0028EFD12BE0216915
:1009F0000868012101F066FF21690868274900F0B5
:100A000038F9064616B101252846E5E7217B22691B
:100A10001068002202F096F821690868204900F069
:100A200028F906463EB921690868012101F06EFFE8
:100A300000252846D0E7404608F10108052802D1E4
:100A400001252846C8E7D2E72DE9FC4704460E46B3
:100A5000174698461FFA88F0CDE90070637BB2B262
:100A6000217B206900F03AF98146B9F1000F03D0EB
:100A700001252846BDE8FC87206841692046884753
:100A800005462846F6E770474066000848616C5CFA
:100A9000453250524F4D2E6370700000010003002C
:100AA0008200070038B504461CB914212BA0FFF7BB
:100AB00048FE2089002850D02F492068884204D160
:100AC0000121042002F0D5FE39E02C49206888423B
:100AD00004D10121082002F0CCFE30E02849206832
:100AE000884204D10121102002F0C3FE27E02549ED
:100AF0002068884204D10121202002F0BAFE1EE0C5
:100B000021492068884204D10121402002F0B1FE31
:100B100015E01E492068884204D10121802002F09E
:100B2000A8FE0CE01A492068884204D101218015F2
:100B300002F09FFE03E0382108A0FFF702FEA07933
:100B40008DF8030003208DF80200A088ADF80000A6
:100B50006946206801F09EF800BF38BD44657657AD
:100B60007261707065725C44657657726170706511
:100B700072494F2E6300000000080140000C014044
:100B8000001001400014014000180140001C014009
:100B9000002001400FB41FB509A8FFF783FF0CA880
:100BA000FFF780FFFA490698884204D101214805E1
:100BB00002F088FE07E0F7490698884203D1012138
:100BC000880502F07FFE0020ADF804004BF6FF70B0
:100BD000ADF806000A20ADF808004FF48060ADF8CB
:100BE0000A000001ADF80C000798009069460698CD
:100BF00001F02CFD0898012834D10121E54801F0CD
:100C000019FE0121084602F009FEE14906988842D2
:100C100007D1E14800F030FBDD481030DF490860C3
:100C20000BE0DC490698884207D1DB48283800F001
:100C300023FBD8481030D94908600020D7494860C4
:100C4000102088604FF6FF70C86000200861802087
:100C5000486100208861C86108624FF440504862D2
:100C6000002088620121069801F0C0FD1FBC5DF8DC
:100C700014FB2DE9F04106460D4641F2883725E088
:100C8000381EA7F1010721D1C549681A8D4216D037
:100C900006DC6FF44030284448B1012811D10AE045
:100CA000A0F58020423820B102280AD105E00224B4
:100CB00008E0032406E0042404E0052402E00624FE
:100CC00000E000BF00BF2046BDE8F0812946304665
:100CD00002F010F90028D3D00020F5E72DE9FC5FE1
:100CE00004468B4616461F46DDE90C8A41F28839D8
:100CF00000200190009008E0B9F10000A9F101097D
:100D000003D101252846BDE8FC9F4FF4003120683F
:100D100002F07EF90028EFD141F2883901212068E4
:100D200001F0D0FD9E493F392068FFF7A2FF05463C
:100D30000DB12846E7E700225946206801F002FF7E
:100D400098492068FFF795FF05460DB12846DAE778
:100D5000012F04D1F1B2206801F0D0FE12E0022F81
:100D600010D1310A206801F0C9FE8E49891C206823
:100D7000FFF77FFF05460DB12846C4E7F1B22068B2
:100D800001F0BCFE8749891C2068FFF772FF054609
:100D90000DB12846B7E7A06801283DD17F48C0F8CB
:100DA000048010207D4988600846C0F80CA078496E
:100DB0002068884205D1784800904FF400100190D7
:100DC00008E074492068884204D1734828380090AC
:100DD000481401907149009800F025FB012100980A
:100DE00000F0F0FB07E0A9F10109B9F1000F02D111
:100DF0000525284687E7019800F00FFD0028F2D06E
:100E0000019800F0B7FD0121206801F07FFD00216D
:100E1000009800F0D7FB1DE0A068D8B90FE098F863
:100E20000010206801F06AFE08F101085D49891C84
:100E30002068FFF71EFF05460DB1284663E7BAF1AB
:100E40000000AAF101011FFA81FAE8D1012120680E
:100E500001F05CFD002056E72DE9F05F04468B466B
:100E600016469846DDE90A9741F2883A08E0BAF159
:100E70000000AAF1010A03D101252846BDE8F09F30
:100E80004FF40031206802F0C3F80028EFD10121AF
:100E9000206801F017FD42493F392068FFF7E9FE5D
:100EA00005460DB12846E9E700225946206801F0C1
:100EB00049FE3C492068FFF7DCFE05460DB1284697
:100EC000DCE7B8F1010F04D1F1B2206801F016FEA1
:100ED00013E0B8F1020F10D1310A206801F00EFEC4
:100EE0003049891C2068FFF7C4FE05460DB128462D
:100EF000C4E7F1B2206801F001FE2A49891C20688C
:100F0000FFF7B7FE05460DB12846B7E70121206877
:100F100001F0D8FC22493F392068FFF7AAFE0546B8
:100F20000DB12846AAE701225946206801F00AFEC1
:100F30001B493E392068FFF79CFE05460DB1284647
:100F40009CE739E0012F03D10021206801F002FD68
:100F500013492068FFF78DFE05460DB128468DE741
:100F6000206801F0DDFD89F8000009F10109012F79
:100F700020D10121206801F0C9FC41F2883A13E038
:100F8000BAF10000AAF1010A0ED1062076E70000AE
:100F900000540040005800406C0002402C07002024
:100FA00040000300820007002068008800F4007001
:100FB0000028E5D1781E87B2002FC3D10121206817
:100FC00001F0C8FC002059E74FF0E020006940F034
:100FD00004004FF0E02108613048314908600846BC
:100FE00000683049B0FBF1F02D4908600846006800
:100FF0004FF47A7148432C4908607047014600203D
:10100000274A12684A434FF0E0235A6100229A614E
:101010001A46126942F001021A6100BF4FF0E02245
:10102000106900F001021AB100F48032002AF5D0F4
:101030004FF0E022126922F001024FF0E0231A6122
:1010400000229A61704710B50021174B1B684FF0C2
:10105000E024636123461B6943F0010323610022FE
:101060000FE000234FF0E024A36100BF4FF0E02326
:10107000196901F001031BB101F48033002BF5D095
:10108000521C8242EDD34FF0E0231B6923F0010391
:101090004FF0E02423610023A36110BD0048E80164
:1010A000A400002040420F00A800002010B5044614
:1010B000B4F5E06F0BD0B4F5C06F08D0B4F5A06FF5
:1010C00005D0B4F5806F02D0B4F5407F00D103E0C5
:1010D00063215DA0FFF7F8FA614820436149086089
:1010E00010BD2DE9F0410446002500270F26E078C9
:1010F00010B1E078012800D103E0752152A0FFF77C
:10110000E3FA6078102800DA03E076214EA0FFF7BA
:10111000DBFAA078102800DA03E077214AA0FFF775
:10112000D3FAE07800B34F48006800F4E060C0F5FF
:10113000E060050AC5F10407EE40607800FA07F5A3
:10114000A078304005432D01474822788554207807
:1011500000F01F010120884021784911890001F128
:10116000E021C1F8000109E0207800F01F01012012
:1011700088403E492278521141F82200BDE8F081B2
:1011800070B504460D46B4F1005F02D0B4F1006FB3
:1011900000D103E09F212CA0FFF796FA3448854246
:1011A00000D203E0A02128A0FFF78EFA314905EA1A
:1011B000010020432B49091F086070BD70B504462B
:1011C0000D46102C03D0042C01D0022C00D103E0DA
:1011D000B2211DA0FFF778FA0DB1012D00D103E077
:1011E000B32119A0FFF770FA3DB11E48001D006839
:1011F00020431C49091D086006E01A48001D0068CC
:10120000A0431849091D086070BD10B50446042CA0
:1012100001D0601D00B903E0CA210BA0FFF754FA0A
:10122000042C08D14FF0E020006940F004004FF09A
:10123000E021086107E04FF0E020006920F00400A1
:101240004FF0E021086110BD5374645065726970FD
:10125000685C7372635C6D6973632E6300000000E9
:101260000000FA050CED00E000E400E080E100E0A1
:10127000FFFF0F0080FFFF1F10B50446F7488442B0
:101280002AD0F6481430844226D0F44828308442CC
:1012900022D0F2483C3084421ED0F0485030844284
:1012A0001AD0EE486430844216D0EC48783084423C
:1012B00012D0EB4884420FD0E948143084420BD05E
:1012C000E7482830844207D0E5483C30844203D0C8
:1012D000E3485030844200D103E06F21E1A0FFF7E2
:1012E000F3F920684FF6FE7108402060002020606E
:1012F0006060A060E060D948844208D1D7480838CF
:10130000406840F00F00D549083948608AE0D3486A
:101310001430844208D1D1480838406840F0F000C9
:10132000CE49083948607DE0CC482830844208D155
:10133000CA480838406840F47060C84908394860B5
:1013400070E0C6483C30844208D1C4480838406840
:1013500040F47040C1490839486063E0BF485030EC
:10136000844208D1BD480838406840F47020BB4929
:101370000839486056E0B9486430844208D1B7481B
:101380000838406840F47000B4490839486049E0C2
:10139000B2487830844208D1B0480838406840F0FC
:1013A0007060AE49083948603CE0AD48844206D1DF
:1013B000001F006840F00F00211F086032E0A848BD
:1013C0001430844208D1A648001F006840F0F000A5
:1013D000A349091F086025E0A1482830844208D1AC
:1013E0009F48001F006840F470609D49091F086015
:1013F00018E09B483C30844208D19948001F00689F
:1014000040F470409649091F08600BE09448503042
:10141000844207D19248001F006840F47020904930
:10142000091F086010BD70B505460C4600268B48A4
:1014300085422AD089481430854226D087482830F2
:10144000854222D085483C3085421ED083485030AA
:1014500085421AD081486430854216D07F48783062
:10146000854212D07E4885420FD07D481430854297
:101470000BD07B482830854207D079483C308542E4
:1014800003D077485030854200D103E0CF2175A0CA
:10149000FFF71AF9A068102801D0A06800B903E08E
:1014A000D02170A0FFF710F9E06820B1E068B0F536
:1014B000803F00D203E0D1216AA0FFF705F920693F
:1014C000402801D0206900B903E0D22165A0FFF7D0
:1014D000FBF86069802801D0606900B903E0D3217E
:1014E00060A0FFF7F1F8A06938B1A069B0F5807F7E
:1014F00003D0A069B0F5007F00D103E0D42159A04A
:10150000FFF7E2F8E06938B1E069B0F5806F03D029
:10151000E069B0F5006F00D103E0D52151A0FFF7DD
:10152000D3F8206A202801D0206A00B903E0D62130
:101530004CA0FFF7C9F8606AB0F5405F09D0606A57
:10154000B0F5005F05D0606AB0F5805F01D0606AD9
:1015500000B903E0D72143A0FFF7B6F8A06AB0F5C1
:10156000804F01D0A06A00B903E0D8213DA0FFF769
:10157000ABF82E6847F6F0708643216AA0680843EE
:101580002169084361690843A1690843E169084387
:10159000616A0843A16A084306432E60E0686860F8
:1015A0002068A8606068E86070BD0021016041604B
:1015B0008160C160016141618161C161016241621B
:1015C0008162704770B504460D46244884422AD093
:1015D00022481430844226D020482830844222D029
:1015E0001E483C3084421ED01C48503084421AD0E1
:1015F0001A486430844216D018487830844212D099
:10160000174884420FD01648143084420BD0144837
:101610002830844207D012483C30844203D010481E
:101620005030844200D104E040F229110DA0FFF7B0
:101630004BF80DB1012D00D104E04FF4957109A0D4
:10164000FFF742F825B1206840F00100206004E077
:1016500020684FF6FE710840206070BD080002400F
:10166000080402405374645065726970685C737258
:10167000635C73746D3332663130785F646D612EF4
:101680006300000070B504460D461646FE488442CD
:101690002AD0FD481430844226D0FB4828308442AA
:1016A00022D0F9483C3084421ED0F7485030844262
:1016B0001AD0F5486430844216D0F348783084421A
:1016C00012D0F24884420FD0F048143084420BD03C
:1016D000EE482830844207D0EC483C30844203D0A6
:1016E000EA485030844200D105E040F24911AFF29F
:1016F0008C00FEF7E9FF25F00E0008B905B105E002
:101700004FF4A571AFF2A400FEF7DEFF0EB1012E7B
:1017100000D105E040F24B11AFF2B800FEF7D4FF64
:101720001EB120682843206002E02068A8432060A2
:1017300070BD70B504460D46D34884422AD0D248C5
:101740001430844226D0D0482830844222D0CE485B
:101750003C3084421ED0CC48503084421AD0CA4813
:101760006430844216D0C8487830844212D0C748CA
:1017700084420FD0C548143084420BD0C34828306F
:10178000844207D0C1483C30844203D0BF48503027
:10179000844200D105E04FF4B271AFF23810FEF789
:1017A00093FF656070BD10B50446B74884422AD0E7
:1017B000B5481430844226D0B3482830844222D021
:1017C000B1483C3084421ED0AF48503084421AD0D9
:1017D000AD486430844216D0AB487830844212D091
:1017E000AA4884420FD0A948143084420BD0A7489D
:1017F0002830844207D0A5483C30844203D0A34817
:101800005030844200D105E04FF4BB71AFF2AC1010
:10181000FEF75AFF606880B210BD70B5044600251F
:101820000026012C7ED0022C7CD0042C7AD0082CEF
:1018300078D0102C76D0202C74D0402C72D0802CF4
:101840007FD0B4F5807F7CD0B4F5007F79D0B4F53B
:10185000806F76D0B4F5006F73D0B4F5805F70D030
:10186000B4F5005F6DD0B4F5804F6AD0B4F5004F89
:1018700067D0B4F5803F64D0B4F5003F61D0B4F5D3
:10188000802F5ED0B4F5002F5BD0B4F5801F58D008
:10189000B4F5001F55D0B4F5800F52D0B4F5000F49
:1018A0004FD0B4F1807F4CD0B4F1007F49D0B4F177
:1018B000806F46D0B4F1006F43D07548844240D069
:1018C000401C84423DD0801C84423AD0001D84429A
:1018D00037D06F480F30844233D06D481F30844278
:1018E0002FD06B483F3084422BD069487F308442F0
:1018F00027D06748FF30844223D06648844220D0F6
:10190000654884421DD0654884421AD0B4F1102F36
:1019100017D04FEAF030844213D06148844210D08F
:10192000604800E00DE084420BD05F48844208D05C
:101930005E48844205D05E48844202D05D488442BD
:1019400000D105E040F2B711AFF2E820FEF7BCFE8F
:1019500004F0805018B14D480838066802E04A4843
:101960000838066806EA040008B1012500E00025F1
:10197000284670BD10B5044604F0704010B14E48C2
:10198000204008B904B105E040F20E21AFF22C303E
:10199000FEF79AFE04F0805018B13C48001F046026
:1019A00002E039480838446010BD70B5044600258F
:1019B0000026012C66D0022C64D0042C62D0082CA6
:1019C00060D0102C5ED0202C5CD0402C5AD0802CC3
:1019D00058D0B4F5807F55D0B4F5007F52D0B4F51F
:1019E000806F4FD0B4F5006F4CD0B4F5805F49D014
:1019F000B4F5005F46D0B4F5804F43D0B4F5004F46
:101A000040D0B4F5803F7FD0B4F5003F7CD0B4F532
:101A1000802F79D0B4F5002F76D0B4F5801F73D025
:101A2000B4F5001F70D0B4F5800F6DD0B4F5000F81
:101A30006AD0B4F1807F67D0B4F1007F64D0B4F194
:101A4000806F61D0B4F1006F5ED0114884425BD0EA
:101A5000401C844258D0801C844255D0001D8442D2
:101A600052D00B480F3084424ED009481F30844278
:101A70004AD007483F30844246D005487F308442F0
:101A800042D01BE040E00000080002400804024091
:101A900001000010000200100004001000080010F7
:101AA0000040001000800010000001100000021033
:101AB00000000410000008100000F0EF2B48FF3079
:101AC000844221D02A4884421ED02A4884421BD016
:101AD0002948844218D0B4F1102F15D04FEAF030C5
:101AE000844211D0254884420ED0254884420BD030
:101AF0002448844208D02448844205D023488442A4
:101B000002D02348844200D105E040F25921AFF2CF
:101B1000AC40FEF7D9FD04F0805010B11D480668B6
:101B200001E01D48066806EA040008B1012500E04E
:101B30000025284670BD10B5044604F0704010B171
:101B40001648204008B904B105E040F2AF21AFF2D9
:101B5000EC40FEF7B9FD04F0805018B10D48001DAF
:101B6000046001E00C48446010BD0000010000105A
:101B700000020010000400100008001000400010D7
:101B8000008000100000011000000210000004108E
:101B90000000081000040240000002400000F0EFC6
:101BA00010B50446FC48844211D0FC4884420ED053
:101BB000FB4884420BD0FB48844208D0FA48844258
:101BC00005D0FA48844202D0F948844200D103E0AB
:101BD0006F21F8A0FEF778FDEF48844208D101217B
:101BE000042001F098FE0021042001F094FE46E05C
:101BF000EA48844208D10121082001F08CFE00212E
:101C0000082001F088FE3AE0E548844208D101212D
:101C1000102001F080FE0021102001F07CFE2EE05B
:101C2000E048844208D10121202001F074FE002107
:101C3000202001F070FE22E0DB48844208D101211F
:101C4000402001F068FE0021402001F064FE16E013
:101C5000D648844208D10121802001F05CFE002199
:101C6000802001F058FE0AE0D148844207D10121CA
:101C7000801501F050FE0021A01501F04CFE10BDB2
:101C800010B50121084601F046FE0021012001F0B7
:101C900042FE10BD2DE9F05F05460C464FF00009ED
:101CA000CA4600260027B046B346BB48854211D03D
:101CB000BA4885420ED0BA4885420BD0B948854211
:101CC00008D0B948854205D0B848854202D0B84806
:101CD000854200D103E0B221B6A0FEF7F5FCE07822
:101CE000A0B1E078042811D0E07828280ED0E07860
:101CF00048280BD0E078142808D0E078102805D0C8
:101D0000E0781C2802D0E078182800D103E0B32145
:101D1000A8A0FEF7D9FC002010B9208800B103E08C
:101D2000B421A4A0FEF7D0FCE07800F00F09E07821
:101D300000F0100080B1A078012805D0A07802281A
:101D400002D0A078032800D103E0BB2199A0FEF7C0
:101D5000BBFCA07840EA0909207838B3D5F80080A8
:101D600000261FE0012000FA06F7208800EA070A93
:101D7000BA4516D1B7000F2000FA07FB28EA0B0876
:101D800009FA07F040EA0808E078282803D1012082
:101D9000B040686105E0E078482802D10120B040F9
:101DA0002861761C082EDDD3C5F800802088FF2826
:101DB0002BDDD5F80480002623E006F10800012180
:101DC00001FA00F7208800EA070ABA4518D1B700DF
:101DD0000F2000FA07FB28EA0B0809FA07F040EA8F
:101DE0000808E078282803D106F1080081406961DD
:101DF000E078482804D106F10800012181402961DA
:101E0000761C082ED9D3C5F80480BDE8F09F4FF6A4
:101E1000FF710180022181700421C170704770B58B
:101E200005460C4600265C48854211D05B48854239
:101E30000ED05B4885420BD05A48854208D05A489C
:101E4000854205D05948854202D05948854200D183
:101E500004E04FF48F7157A0FEF736FC012C25D01B
:101E6000022C23D0042C21D0082C1FD0102C1DD0E4
:101E7000202C1BD0402C19D0802C17D0B4F5807F9B
:101E800014D0B4F5007F11D0B4F5806F0ED0B4F546
:101E9000006F0BD0B4F5805F08D0B4F5005F05D0BB
:101EA000B4F5804F02D0B4F5004F00D104E040F209
:101EB0001F1140A0FEF708FCA868204008B10126C9
:101EC00000E00026304670BD10B50446324884421A
:101ED00011D0324884420ED0314884420BD0314870
:101EE000844208D03048844205D03048844202D031
:101EF0002F48844200D104E04FF49A712DA0FEF7E0
:101F0000E3FBA06880B210BD70B505460C46002604
:101F10002148854211D0214885420ED02048854273
:101F20000BD02048854208D01F48854205D01F4865
:101F3000854202D01E48854200D104E04FF4A271D0
:101F40001CA0FEF7C1FB012C25D0022C23D0042CB1
:101F500021D0082C1FD0102C1DD0202C1BD0402CA1
:101F600019D0802C17D0B4F5807F14D0B4F5007F41
:101F700011D0B4F5806F0ED0B4F5006F0BD0B4F56E
:101F8000805F08D0B4F5005F05D0B4F5804F02D073
:101F9000B4F5004F1ED123E000080140000C0140C1
:101FA000001001400014014000180140001C0140D5
:101FB000002001405374645065726970685C7372EC
:101FC000635C73746D3332663130785F6770696F4C
:101FD0002E63000040F24511AFF22800FEF774FBBB
:101FE000E868204008B1012600E00026304670BDB8
:101FF00010B50446FE48844211D0FE4884420ED0FB
:10200000FD4884420BD0FD48844208D0FC488442FD
:1020100005D0FC48844202D0FB48844200D105E050
:102020004FF4AD71AFF27400FEF74EFBE06880B282
:1020300010BD70B504460D46ED48844211D0ED4800
:1020400084420ED0EC4884420BD0EC48844208D045
:10205000EB48844205D0EB48844202D0EA488442EF
:1020600000D105E040F26911AFF2B800FEF72CFB99
:10207000002008B905B105E04FF4B571AFF2CC000E
:10208000FEF722FB256170BD70B504460D46D848A9
:10209000844211D0D74884420ED0D74884420BD016
:1020A000D648844208D0D648844205D0D5488442D8
:1020B00002D0D548844200D105E040F27911AFF258
:1020C0000C10FEF701FB002008B905B105E04FF444
:1020D000BD71AFF22010FEF7F7FA656170BD70B503
:1020E00005460C461646C248854211D0C148854275
:1020F0000ED0C14885420BD0C048854208D0C048A8
:10210000854205D0BF48854202D0BF48854200D1F4
:1021100005E040F28D11AFF26410FEF7D5FA012C04
:1021200025D0022C23D0042C21D0082C1FD0102C19
:102130001DD0202C1BD0402C19D0802C17D0B4F5EA
:10214000807F14D0B4F5007F11D0B4F5806F0ED02D
:10215000B4F5006F0BD0B4F5805F08D0B4F5005F24
:1021600005D0B4F5804F02D0B4F5004F00D105E0A2
:102170004FF4C771AFF2C410FEF7A6FA0EB1012EEC
:1021800000D105E040F28F11AFF2D810FEF79CFAB3
:102190000EB12C6100E06C6170BD70B504460D4657
:1021A0009348844211D0934884420ED0924884428E
:1021B0000BD09248844208D09148844205D091487F
:1021C000844202D09048844200D105E04FF4D2719D
:1021D000AFF22020FEF778FAE56070BD70B50446D6
:1021E0000D464FF480368248844211D081488442A3
:1021F0000ED0814884420BD08048844208D0804869
:10220000844205D07F48844202D07F48844200D176
:1022100005E040F2B511AFF26420FEF755FA002058
:1022200008B905B105E04FF4DB71AFF27820FEF795
:102230004BFA2E43A661A561A661A669A66970BD89
:1022400070B505460C4600263DB1012D05D0022D86
:1022500003D0032D01D0042D00D105E04FF4E97126
:10226000AFF2B020FEF730FAECB1012C1BD0022CFB
:1022700019D0032C17D0042C15D0052C13D0062C04
:1022800011D0072C0FD0082C0DD0092C0BD00A2C04
:1022900009D00B2C07D00C2C05D00D2C03D00E2C04
:1022A00001D00F2C00D105E040F2D311AFF2FC2099
:1022B000FEF70AFA554806684FF68070064046EA6F
:1022C000051626435148066070BD10B504460CB192
:1022D000012C00D105E04FF4F371AFF22830FEF786
:1022E000F3F94B48C46110BD2DE9F04704460E4692
:1022F0000027B8460025A946012C77D0022C75D0BE
:10230000042C73D0082C71D0424884426ED04148CE
:10231000203084426AD04048844267D03E488030B2
:10232000844263D03D48844260D03D4884425DD0C1
:102330003C4884425AD03C48844257D03B4884426F
:1023400054D0B4F5805F51D0B4F5EA1F4ED0B4F547
:10235000EB1F4BD0B4F5004F48D03548844245D0F0
:10236000401C844242D0801C84427FD0001D8442A5
:102370007CD02F480F30844278D0B4F1201F75D024
:102380004FEAF030844271D02A4884426ED02A4805
:1023900084426BD02948844268D02948844265D061
:1023A0002848844262D0B4F5011F5FD02648844299
:1023B0005CD0401C844259D0801C844256D0001D01
:1023C000844253D020480F3084424FD01E481F30E3
:1023D00084424BD01C483F30844247D01A487F305B
:1023E000844243D01848FF3084422FE03EE0000092
:1023F00000080140000C01400010014000140140A1
:1024000000180140001C0140002001400000014074
:1024100000002042100014004000160000011800C7
:10242000000218000003180000081A00000C1A002F
:1024300001002000000130000002300000043000E4
:102440000011200000202000010000800ED066480E
:1024500084420BD06548844208D06548844205D048
:102460006448844202D06448844200D105E040F2CE
:102470002A21AFF2C040FEF727F90EB1012E00D19C
:1024800005E040F22B21AFF2D440FEF71DF904F035
:102490000040B0F1004F02D15848C56901E05748EB
:1024A0004568C4F30349A7B204F44010B0F5401FD7
:1024B00008D125F070655148406820F070604F49A0
:1024C000486013E004F48010B0F5801F07D10320AA
:1024D00000FA09F825EA080545F0706506E0600D88
:1024E000000107FA00F0854345F0706526B1600DE4
:1024F000010107FA01F0054304F00040B0F1004F7C
:1025000002D13E48C56101E03C484560BDE8F08726
:1025100070B505460C4600265DB1012D09D0022D8F
:1025200007D0032D05D0042D03D0052D01D0062D95
:1025300000D105E040F26521AFF28850FEF7C4F803
:10254000ECB1012C1BD0022C19D0032C17D0042C79
:1025500015D0052C13D0062C11D0072C0FD0082C29
:102560000DD0092C0BD00A2C09D00B2C07D00C2C29
:1025700005D00D2C03D00E2C01D00F2C00D105E07E
:1025800040F26621AFF2D450FEF79EF8A007010F8B
:102590000F2000FA01F619480830A11050F8210068
:1025A000B04316490831A21041F822000846A11094
:1025B00050F82100A107090F05FA01F108430F495E
:1025C0000831A21041F8220070BD10B504460CB1CC
:1025D000012C00D105E04FF41E71AFF22860FEF728
:1025E00073F80748046010BD0002008000040080FA
:1025F00000080080001000800020008000000140E2
:10260000DC00204210B50446FA48844202D0FA4861
:10261000844200D103E0A521F8A0FEF755F8F54863
:10262000844209D10121480501F09EF900214FF4AF
:10263000001001F099F908E00121880501F094F9F2
:1026400000214FF4800001F08FF910BD2DE9F04317
:1026500085B005460C460026B1460427DFF8BC834A
:10266000E448854202D0E448854200D103E0C62117
:10267000E2A0FEF729F8206820B1E94920688842E5
:1026800000D803E0C721DDA0FEF71EF8A08828B11E
:10269000A088022802D0A0880A2800D103E0C8211F
:1026A000D6A0FEF711F8E088B0F5804F04D0E0889E
:1026B0004BF6FF71884200D103E0C921CFA0FEF79D
:1026C00003F82089B0F5806F00DA03E0CA21CBA0BF
:1026D000FDF7FAFF6089B0F5806F01D0608900B91D
:1026E00003E0CB21C5A0FDF7EFFFA089B0F5804F37
:1026F00003D0A089B0F5404F00D103E0CC21BFA0AA
:10270000FDF7E2FFAE884FF6C0700640684601F064
:102710001DF8DDF80880C348B8FBF0F01FFA80F917
:1027200046EA0906AE8028884FF6FE7108402880E8
:102730000026BD49206888420CD820684000B8FBBC
:10274000F0F087B2042F00DA04273E4309F10100BC
:10275000288427E0E0884BF6FF71884206D1206884
:1027600000EB4000B8FBF0F087B209E0206800EB16
:10277000C00101EB0010B8FBF0F087B247F48047CE
:10278000C7F30B0008B947F0010747F400400643C0
:102790004FF4967009FB00F04FF47A7190FBF1F062
:1027A000401C2884AE83288840F0010028802E88B1
:1027B0004FF6F5300640A0886189084306432E8015
:1027C000A08921890843288105B0BDE8F08341F242
:1027D00088310160002181804BF6FF71C1800021AA
:1027E000018141814FF480418181704770B5044679
:1027F0000D468048844202D07F48844200D104E0E4
:1028000040F245117DA0FDF75FFF0DB1012D00D114
:1028100004E04FF4A37179A0FDF756FF25B120889D
:1028200040F00100208004E020884FF6FE7108404F
:10283000208070BD70B504460D466E48844202D0BB
:102840006D48844200D104E040F25D116BA0FDF7B9
:102850003BFF0DB1012D00D104E04FF4AF7167A033
:10286000FDF732FF25B1A08840F40060A08004E0AD
:10287000A0884FF2FF710840A08070BD70B504467B
:102880000D465C48844202D05B48844200D104E09B
:1028900040F2751159A0FDF717FF0DB1012D00D1C0
:1028A00004E04FF4BB7155A0FDF70EFF25B1A088E1
:1028B00040F48050A08004E0A0884EF6FF710840EC
:1028C000A08070BD70B504460D464A48844202D0CF
:1028D0004948844200D104E040F28D1147A0FDF741
:1028E000F3FE0DB1012D00D104E04FF4C77143A0F8
:1028F000FDF7EAFE25B1208840F48070208004E0D6
:1029000020884FF6FF610840208070BD70B50446F6
:102910000D463848844202D03748844200D104E052
:1029200040F2A51135A0FDF7CFFE0DB1012D00D16C
:1029300004E04FF4D37131A0FDF7C6FE25B1208825
:1029400040F40070208004E020884FF6FF510840DA
:10295000208070BD70B504460D462648844202D0E2
:102960002548844200D104E040F2BD1123A0FDF7C8
:10297000ABFE0DB1012D00D104E04FF4DF711FA0BB
:10298000FDF7A2FE25B1208840F48060208004E09D
:1029900020884FF6FF310840208070BD70B5044696
:1029A0000E4600251348844202D01348844200D1C9
:1029B00004E04FF4EB7111A0FDF786FEA5894FF6F8
:1029C0000170054006F0FE000543A58170BD70B59D
:1029D00004460D460748844202D00748844200D18D
:1029E00004E040F2EF1105A0FDF76EFE0DB1012DE0
:1029F0001CD121E000540040005800405374645042
:102A000065726970685C7372635C73746D3332668F
:102A10003130785F6932632E6300000000127A0063
:102A2000801A060040420F00A08601004FF4F871A2
:102A3000AFF23800FDF748FE25B1A08940F0010053
:102A4000A08104E0A0894FF6FE710840A08170BD0E
:102A500070B504460D46F948844202D0F8488442D5
:102A600000D105E040F20721AFF27000FDF72CFE27
:102A70000DB1012D00D105E04FF40271AFF28400D9
:102A8000FDF722FE25B1208840F04000208004E0C0
:102A900020884FF6BF710840208070BD70B5044695
:102AA0000D461646E548844202D0E548844200D1EE
:102AB00005E04FF40971AFF2BC00FDF705FE0EB161
:102AC000012E00D105E040F22521AFF2D000FDF744
:102AD000FBFD4FF6FF00284008B905B105E040F2C4
:102AE0002621AFF2E800FDF7EFFD1EB1A0882843D4
:102AF000A08002E0A088A843A08070BD70B5044605
:102B00000D46CE48844202D0CD48844200D105E033
:102B100040F23D21AFF21C10FDF7D6FD258270BDBD
:102B200010B50446C548844202D0C548844200D14D
:102B300005E040F24A21AFF23C10FDF7C5FD208AC6
:102B4000C0B210BD70B504460E461546BB4884425F
:102B500002D0BB48844200D105E04FF41771AFF2B8
:102B60006410FDF7B1FD0DB1012D00D105E040F27B
:102B70005D21AFF27810FDF7A7FD15B146F0010613
:102B800002E04FF6FE700640268270BD38B505465D
:102B90000C4600200090A948854202D0A8488542F2
:102BA00000D105E040F28121AFF2B010FDF78CFDBD
:102BB0007CB1042C0DD0082C0BD00C2C09D0102C7F
:102BC00007D0142C05D0182C03D01C2C01D0202C9D
:102BD00000D105E040F28221AFF2E010FDF774FD74
:102BE00000950098204400900098008838BD70B58A
:102BF00004460D469148844202D09148844200D157
:102C000005E040F29521AFF20C20FDF75DFD0DB11E
:102C1000012D00D105E040F29621AFF22020FDF712
:102C200053FD25B1208840F40040208003E0208837
:102C3000C0F30E00208070BD70B504460D467F487D
:102C4000844202D07E48844200D105E040F2BB219C
:102C5000AFF25820FDF738FDB5F5006F03D04FF205
:102C6000FF70854200D105E04FF42F71AFF2742060
:102C7000FDF72AFDB5F5006F04D1208840F400600F
:102C8000208004E020884FF2FF710840208070BD52
:102C900070B504460D466948844202D068488442B3
:102CA00000D105E040F2D721AFF2B020FDF70CFDD6
:102CB000B5F5005F03D04DF6FF70854200D105E009
:102CC0004FF43671AFF2CC20FDF7FEFCB5F5005F96
:102CD00004D1208840F40050208004E020884DF684
:102CE000FF710840208070BD70B504460D46534802
:102CF000844202D05248844200D105E040F2EF21E4
:102D0000AFF20830FDF7E0FC0DB1012D00D105E078
:102D10004FF43C71AFF21C30FDF7D6FC25B1208892
:102D200040F48050208004E020884EF6FF71084077
:102D3000208070BD70B504460D464048844202D0E4
:102D40003F48844200D105E040F20E31AFF25430EA
:102D5000FDF7BAFCB5F5006F03D04FF2FF70854266
:102D600000D105E040F20F31AFF27030FDF7ACFC5E
:102D7000B5F5006F04D1208840F40060208004E0A5
:102D800020884FF2FF710840208070BD70B5044666
:102D90000D462A48844202D02948844200D105E0E9
:102DA00040F22631AFF2AC30FDF78EFC0DB1012DB3
:102DB00000D105E040F22731AFF2C030FDF784FCCE
:102DC00025B1208840F02000208004E020884FF6C4
:102DD000DF710840208070BD10B50446174884425A
:102DE00002D01748844200D105E04FF44F71AFF292
:102DF000F430FDF769FC208B001210BD70B504465D
:102E00000D460E48844202D00D48844200D105E0B0
:102E100040F24B31AFF21C40FDF756FC0DB1012DD5
:102E200000D105E04FF45371AFF23040FDF74CFC98
:102E300045B1208840F01000208008E00054004098
:102E40000058004020884FF6EF710840208070BD88
:102E500070B504460D46F748844202D0F6488442D5
:102E600000D105E040F26331AFF27040FDF72CFC79
:102E70000DB1012D00D105E04FF45971AFF284403E
:102E8000FDF722FC25B9208840F08000208004E076
:102E900020884FF67F710840208070BD70B50446D1
:102EA0000D46E448844202D0E348844200D105E064
:102EB00040F27D31AFF2BC40FDF706FCB5F5804F26
:102EC00003D04BF6FF70854200D105E040F27E3121
:102ED000AFF2D840FDF7F8FBB5F5804F05D0A08BD9
:102EE0004BF6FF710840A08303E0A08B40F48040C4
:102EF000A08370BD2DE9F04705460C460027B94672
:102F00000026B046CB48854202D0CB48854200D14E
:102F100005E040F20D41AFF21C50FDF7D5FBC7486C
:102F200084423DD0B4F1021F3AD0C548844237D024
:102F3000B4F5020F34D0B4F5901F31D0C1488442AB
:102F40002ED0C14884422BD0C048844228D0BB48F0
:102F5000801C844224D0BA48001D844220D0BC4842
:102F600084421DD0102C1BD0BA48844218D0BA48D5
:102F7000844215D0B748401C844211D0B5483F3038
:102F800084420DD0B448801C844209D0001F844282
:102F900006D0B048C01D844202D0B4F5806F00D185
:102FA00005E040F20E41AFF2AC50FDF78DFBB5F8F5
:102FB00014902E8B360449EA060020F07F4707EA7A
:102FC0000400A04202D14FF0010801E04FF00008D8
:102FD0004046BDE8F0872DE9F04104460026002771
:102FE00000259448844202D09348844200D105E0F1
:102FF00040F23C41AFF2FC50FDF766FBA78A258BFF
:103000002D0447EA050020F07F463046BDE8F081F8
:103010007CB505460C4600260020019000908548AE
:10302000854202D08448854200D105E040F27341D8
:10303000AFF23860FDF748FBB4F5000F3FD0B4F5B0
:10304000800F3CD0B4F5001F39D0B4F5801F36D0C6
:10305000B4F5802F33D0B4F5003F30D0B4F5803FC5
:103060002DD07E4884422AD07D48844227D0B4F1B6
:10307000102F24D07B48844221D07B4884421ED02C
:103080007A4884421BD07A48844218D078488038E5
:10309000844214D07648C038844210D07448F03846
:1030A00084420CD07248F838844208D0001F844211
:1030B00005D0801E844202D0401E844200D105E02B
:1030C00040F27441AFF2CC60FDF7FEFA0095200F9C
:1030D000019024F07F44019818B1009814300090BA
:1030E00003E0240C009818300090009800682040FD
:1030F00008B1012600E0002630467CBD70B50446CC
:103100000D4600264B48844202D04B48844200D1F1
:1031100005E04FF49861AFF21C70FDF7D5FA42F26A
:10312000FF00284008B905B105E040F2C141AFF207
:103130003470FDF7C9FA25F07F46F043A08270BDD8
:103140002DE9F04105460C46002600273948854206
:1031500002D03948854200D105E040F2E441AFF2A7
:103160006470FDF7B1FA4348844228D04248844253
:1031700025D04248844222D0414884421FD0414851
:1031800084421CD04048844219D0B4F1012F16D09B
:103190003E48844213D03D48403884420FD03C48DA
:1031A00084420CD03A480838844208D0001F844238
:1031B00005D0801E844202D0401E844200D105E02A
:1031C00040F2E541AFF2CC70FDF77EFAA88804F03A
:1031D000E06100EA114724F07F44A88A204010B142
:1031E0000FB1012600E000263046BDE8F08170B541
:1031F00004460D4600260F48844202D00E48844201
:1032000000D105E040F21F51AFF61000FDF75CFA67
:1032100042F2FF00284008B905B105E04FF4A4616F
:10322000AFF62800FDF750FA25F07F46F043A08264
:1032300070BD0000005400400058004082000600AD
:103240008000860040000200400082004000120022
:1032500084001600010003008200070000800010B7
:1032600000400010000800100004001000020010D0
:10327000000100100080000100400001001000016A
:1032800000080001000400010002000180000006A7
:1032900010000002FE48006840F00100FC49086090
:1032A00008464068FB490840F949486008460068FC
:1032B000F9490840F64908600846006820F4802073
:1032C00008600846406820F4FE0048604FF41F0084
:1032D0008860704710B504462CB1B4F5803F02D029
:1032E000B4F5802F00D104E040F21111EBA0FDF7FE
:1032F000EBF9E748006820F48030E54908600846AB
:10330000006820F480200860B4F5803F03D0B4F555
:10331000802F0ED106E0DE48006840F48030DC49A2
:10332000086007E0DA48006840F4A020D849086047
:1033300000E000BF00BF10BD2DE9F04104460025AC
:1033400000260027212C13D0312C11D0392C0FD07E
:10335000412C0DD0612C0BD07A2C09D07B2C07D0BE
:103360007C2C05D07D2C03D07E2C01D07F2C00D16D
:1033700004E040F23451C9A0FDF7A6F96511012D12
:1033800002D1C348066806E0022D02D1C048066A91
:1033900001E0BF48466A04F01F050120A840304004
:1033A00008B1012700E000273846BDE8F08138B5B4
:1033B000002000900024002500BF3120FFF7BCFF53
:1033C00005460098401C00900098B0F5A06F01D011
:1033D000002DF2D03120FFF7AFFF08B1012400E04B
:1033E0000024204638BD70B5044600251F2C00DCA3
:1033F00004E04FF4A971A9A0FDF766F9A448056897
:1034000025F0F80545EAC405056070BD10B5044611
:103410000CB1012C00D104E040F265119FA0FDF732
:1034200053F9A648046010BD70B505460C46002649
:103430002DB1B5F5803F02D0B5F5403F00D104E095
:1034400040F27F1195A0FDF73FF94CB3B4F5802F02
:1034500026D0B4F5002F23D0B4F5402F20D0B4F5FA
:10346000801F1DD0B4F5A01F1AD0B4F5C01F17D00F
:10347000B4F5E01F14D0B4F5001F11D0B4F5101F3F
:103480000ED0B4F5201F0BD0B4F5301F08D0B4F522
:10349000401F05D0B4F5501F02D0B4F5601F00D115
:1034A00004E04FF4C0717DA0FDF70EF9784846683E
:1034B00026F47C1645EA040006437548466070BD54
:1034C00010B504460CB1012C00D104E04FF4CA71D0
:1034D00072A0FDF7F9F87948046610BD70B504468E
:1034E00000251CB1012C01D0022C00D104E04FF4C6
:1034F0000E716AA0FDF7E8F86548456825F00305F8
:103500002543456070BD6248406800F00C0070477C
:1035100070B5044600257CB1802C0DD0902C0BD0CA
:10352000A02C09D0B02C07D0C02C05D0D02C03D0B3
:10353000E02C01D0F02C00D104E04FF4197157A019
:10354000FDF7C2F85248456825F0F005254345606F
:1035500070BD70B5044600255CB1B4F5806F08D02D
:10356000B4F5A06F05D0B4F5C06F02D0B4F5E06F2C
:1035700000D104E040F27E2148A0FDF7A5F84448C0
:10358000456825F4E0652543456070BD70B5044687
:1035900000255CB1B4F5806F08D0B4F5A06F05D0FC
:1035A000B4F5C06F02D0B4F5E06F00D104E04FF481
:1035B00026713AA0FDF788F83548456825F460552E
:1035C00045EAC405456070BD70B504460D4604F07B
:1035D000E00008B904B104E040F2BF212FA0FDF7DC
:1035E00073F80DB1012D00D104E04FF430712BA020
:1035F000FDF76AF82DB12648407A204324494872E5
:1036000004E02348407AA0432149487270BD10B5B8
:1036100004460CB1012C00D104E040F2DB211FA0D4
:10362000FDF752F82548D830046010BD70B5044647
:10363000002544B1B4F5804F05D0B4F5004F02D059
:10364000B4F5404F00D104E040F2023113A0FDF781
:103650003BF80F48456825F440452543456070BD5B
:1036600010B504461CB1012C01D0042C00D104E09B
:103670004FF4507109A0FDF727F8002004492031CC
:103680000870034981F82000012C1BD0042C17E09E
:10369000001002400000FFF8FFFFF6FE5374645074
:1036A00065726970685C7372635C73746D333266E3
:1036B0003130785F7263632E630000000000424285
:1036C00008D103E00120F449087004E00520F24924
:1036D000087000E000BF00BF10BD10B504460CB17B
:1036E000012C00D105E040F26131AFF25000FCF74F
:1036F000EBFFEA48046010BD10B50446B4F5807FC6
:1037000005D0B4F5007F02D0B4F5407F00D105E0CC
:1037100040F27231AFF27C00FCF7D6FFDE48203871
:10372000006A2043DC492039086210BD10B5044608
:103730000CB1012C00D105E04FF46071AFF2A40090
:10374000FCF7C2FFD5484438046010BD30B50021F5
:10375000002200240023D04D203D6D6805F00C01AF
:1037600021B1042905D0082926D105E0CC4D0560FA
:1037700025E0CB4D056022E0C74D203D6D6805F486
:103780007012C54D203D6D6805F48034022505EBAF
:1037900092421CB9C34D554305600CE0BE4D203D1F
:1037A0006D6805F400351DB1BE4D5543056002E05E
:1037B000BB4D5543056002E0B94D056000BF00BF39
:1037C000B54D203D6D6805F0F0010909B64D6B5C03
:1037D0000568DD404560B04D203D6D6805F4E06151
:1037E000090AB14D6B5C4568DD408560AA4D203DFE
:1037F0006D6805F46051C90AAB4D6B5C4568DD40EE
:10380000C560A54D203D6D6805F44041890BA74D6D
:103810006B5CC568B5FBF3F5056130BD70B504465A
:103820000D4640F2575024EA000008B904B105E003
:1038300040F22B41AFF29C10FCF746FF0DB1012D79
:1038400000D105E040F22C41AFF2B010FCF73CFF94
:103850003DB191482038406920438F492039486163
:1038600006E08D4820384069A0438B4920394861E3
:1038700070BD70B504460D468D48204008B904B1AE
:1038800005E040F24A41AFF2EC10FCF71DFF0DB12C
:10389000012D00D105E040F24B41AFF20020FCF7D2
:1038A00013FF3DB17C482038806920437A49203994
:1038B000886106E0784820388069A043764920393D
:1038C000886170BD70B504460D467A48204008B93D
:1038D00004B105E040F26941AFF24020FCF7F4FE8C
:1038E0000DB1012D00D105E040F26A41AFF2542044
:1038F000FCF7EAFE3DB168482038C06920436649BC
:103900002039C86106E064482038C069A043624994
:103910002039C86170BD70B504460D46644820402A
:1039200008B904B105E040F2A441AFF29020FCF7E1
:10393000CBFE0DB1012D00D105E040F2A541AFF263
:10394000A420FCF7C1FE3DB153482038C068204395
:1039500051492039C86006E04F482038C068A0436C
:103960004D492039C86070BD70B504460D465148B8
:10397000204008B904B105E040F2C341AFF2E420B1
:10398000FCF7A2FE0DB1012D00D105E040F2C441CB
:10399000AFF2F820FCF798FE3DB13F4820380069AF
:1039A00020433D492039086106E03B482038006942
:1039B000A04339492039086170BD10B504460CB1E7
:1039C000012C00D105E04FF49B61AFF23030FCF7E1
:1039D0007BFE32484038046010BD10B504460CB17F
:1039E000012C00D105E040F2E541AFF25030FCF788
:1039F0006BFE3148C46410BD10B504463CB1052CC3
:103A000005D0042C03D0062C01D0072C00D105E0F2
:103A100040F20551AFF27C30FCF756FE1E482038CC
:103A2000C47110BD1C482038406A40F080701A49AB
:103A300020394862704770B504460025012C09D032
:103A4000022C07D0042C05D0082C03D0102C01D058
:103A5000802C00D105E040F27E51AFF2C030FCF77F
:103A600033FE0D4820388068204008B1012500E071
:103A70000025284670BD10B5044604F0600008B962
:103A800004B105E040F2AB51AFF2F030FCF71CFEA0
:103A900001482038847210BD201002408004424248
:103AA00000127A0000093D00AC000020BC0000209C
:103AB0000200C0FF003601810000424210B50446FA
:103AC000FE4884420BD0FE48844208D0FD48844220
:103AD00005D0FD48844202D0FC48844200D103E076
:103AE0008521FBA0FCF7F0FDF448844209D10121B7
:103AF0008803FFF710FF00214FF48040FFF70BFF12
:103B000032E0EF48844209D101214804FFF72CFF3D
:103B100000214FF40030FFF727FF25E0E9488442F9
:103B200009D101218804FFF71FFF00214FF48020F5
:103B3000FFF71AFF18E0E448844209D10121C804C4
:103B4000FFF712FF00214FF40020FFF70DFF0BE0FD
:103B5000DE48844208D101210805FFF705FF002156
:103B60004FF48010FFF700FF10BD2DE9F04786B03D
:103B700005460C460026B24600BFB1460027CF4896
:103B800085420BD0CE48854208D0CE48854205D02C
:103B9000CD48854202D0CD48854200D103E0B8210E
:103BA000CBA0FCF791FD206820B1D1492068884264
:103BB00000D203E0B921C6A0FCF786FDA08818B1A9
:103BC000A088B0F5805F00D103E0BA21C0A0FCF767
:103BD0007BFDE08858B1E088B0F5805F07D0E088D1
:103BE000B0F5005F03D0E088B0F5405F00D103E09E
:103BF000BB21B7A0FCF768FD208938B12089B0F55A
:103C0000806F03D02089B0F5C06F00D103E0BC21E4
:103C1000AFA0FCF759FD60894FF6F371084010B969
:103C2000608900B103E0BD21A9A0FCF74DFDA0898A
:103C300058B1A089B0F5807F07D0A089B0F5007F8A
:103C400003D0A089B0F5407F00D103E0BE21A0A041
:103C5000FCF73AFDA08968B19848854205D098489C
:103C6000854202D09748854200D103E0C22198A046
:103C7000FCF72AFD2F462E8A4CF6FF700640E0889E
:103C800006432E82AE894EF6F3100640A0882189A5
:103C90000843618908430643AE81AE8A4FF6FF4070
:103CA0000640A0890643AE8201A8FFF74FFD834876
:103CB000874202D1DDF810A001E0DDF80CA0A88950
:103CC00000F4004040B10AEBCA0000EB0A10216882
:103CD0004900B0FBF1F807E00AEBCA0000EB0A105C
:103CE00021688900B0FBF1F86420B8FBF0F0060110
:103CF0003009642101FB1089A88900F4004040B11B
:103D0000322000EBC900B0FBF1F000F007000643E1
:103D100008E0322000EB09106421B0FBF1F000F064
:103D20000F0006432E8106B0BDE8F0874FF4165110
:103D3000016000218180C18001810C21418100212D
:103D40008181704770B505460C4600265B48854268
:103D500005D05B48854202D05A48854200D104E034
:103D60004FF499715AA0FCF7AFFC208818B1208855
:103D7000B0F5006F00D104E040F2331154A0FCF71D
:103D8000A3FC608818B16088B0F5806F00D104E0B2
:103D90004FF49A714EA0FCF797FCA08818B1A08848
:103DA000B0F5007F00D104E040F2351148A0FCF7E7
:103DB0008BFCE08818B1E088B0F5807F00D104E08A
:103DC0004FF49B7142A0FCF77FFC2E8A4FF2FF005C
:103DD0000640208861880843A1880843E188084399
:103DE00006432E8270BD0021018041808180C18008
:103DF000704770B504460D46304884420BD03048B9
:103E0000844208D02F48844205D02F48844202D0F3
:103E10002E48844200D104E04FF4B1712CA0FCF78D
:103E200053FC0DB1012D00D104E040F2631128A034
:103E3000FCF74AFC25B1A08940F40050A08104E0C1
:103E4000A0894DF6FF710840A08170BD2DE9F047B3
:103E500005460C4617464FF00008C246C1460026EC
:103E6000164885420BD01648854208D01548854231
:103E700005D01548854202D01448854200D104E09F
:103E800040F2891112A0FCF71FFC282C36D040F21A
:103E90002770844232D040F2266084422ED040F215
:103EA000255084422AD040F22440844226D040F655
:103EB0004600844222D040F66A101BE000380140E0
:103EC0000044004000480040004C004000500040CA
:103ED0005374645065726970685C7372635C737468
:103EE0006D3332663130785F75736172742E6300A2
:103EF00021AA4400844201D0602C00D105E04FF497
:103F0000C571AFF23400FCF7DFFB0FB1012F00D118
:103F100005E040F28B11AFF24800FCF7D5FB40F60C
:103F20006A1084420FD1F948854205D0F84885428D
:103F300002D0F848854200D105E040F28F11AFF27F
:103F40007000FCF7C1FB2E46C4F3421804F01F0AB0
:103F5000012000FA0AF9B8F1010F01D10C3605E091
:103F6000B8F1020F01D1103600E0143627B13068E5
:103F700040EA0900306003E0306820EA0900306060
:103F8000BDE8F08770B504460D461646DF4884420A
:103F90000BD0DF48844208D0DE48844205D0DE489A
:103FA000844202D0DD48844200D105E040F2C311D2
:103FB000AFF2E400FCF788FB4FF63F70284008B9E9
:103FC00005B105E04FF4E271AFF2FC00FCF77CFBB9
:103FD0000EB1012E00D105E040F2C511AFF2101074
:103FE000FCF772FB1EB1A08A2843A08202E0A08ADF
:103FF000A843A08270BD70B504460D46C3488442F4
:104000000BD0C348844208D0C248844205D0C2487D
:10401000844202D0C148844200D105E040F2DF1161
:10402000AFF25410FCF750FB0F2D00DC05E04FF40D
:10403000F071AFF26410FCF747FB208A4FF6F07185
:1040400008402082208A2843208270BD70B5044633
:104050000D46AE4884420BD0AD48844208D0AD48EE
:10406000844205D0AC48844202D0AC48844200D19E
:1040700005E04FF4FB71AFF2A810FCF725FB15B17A
:10408000B5F5006F00D105E040F2F711AFF2C010B6
:10409000FCF71AFBA0894FF2FF710840A081A089AC
:1040A0002843A08170BD70B504460D4697488442F0
:1040B0000BD09748844208D09648844205D0964851
:1040C000844202D09548844200D105E040F20921A3
:1040D000AFF20420FCF7F8FA0DB1012D00D105E094
:1040E00040F20A21AFF21820FCF7EEFA25B1A089C0
:1040F00040F00200A08104E0A0894FF6FD71084065
:10410000A08170BD70B504460D46804884420BD036
:104110007F48844208D07F48844205D07E4884424C
:1041200002D07E48844200D105E040F22621AFF261
:104130006020FCF7C9FA0DB1202D00D105E040F256
:104140002721AFF27420FCF7BFFA208A4FF6DF7107
:1041500008402082208A2843208270BD70B5044622
:104160000D466A4884420BD06948844208D06948A9
:10417000844205D06848844202D06848844200D115
:1041800005E040F23921AFF2B820FCF79DFA0DB1FD
:10419000012D00D105E040F23A21AFF2CC20FCF72E
:1041A00093FA25B1208A40F48040208204E0208ADE
:1041B0004BF6FF710840208270BD70B504460D4675
:1041C000524884420BD05248844208D0514884421D
:1041D00005D05148844202D05048844200D105E0C5
:1041E00040F25321AFF21830FCF76EFAB5F5007FBC
:1041F00000DA05E04FF41571AFF22C30FCF764FAE9
:10420000C5F30800A08070BD10B504463F48844245
:104210000BD03F48844208D03E48844205D03E48F7
:10422000844202D03D48844200D105E04FF4197128
:10423000AFF26430FCF748FAA088C0F3080010BD64
:1042400010B50446314884420BD03148844208D02E
:104250003048844205D03048844202D02F488442FE
:1042600000D105E04FF41D71AFF29C30FCF72CFA41
:10427000A08940F00100A08110BD70B504460D4634
:104280002248844205D02248844202D021488442F8
:1042900000D105E04FF42171AFF2CC30FCF714FAF5
:1042A000208BC0B22083208B40EA0520208370BD84
:1042B00070B504460D46154884420BD0144884421C
:1042C00008D01448844205D01348844202D01348D1
:1042D000844200D105E04FF42671AFF20C40FCF7A8
:1042E000F3F9208B00F47F402083208B2843208328
:1042F00070BD70B504460D460448844205D004489C
:10430000844202D0034884420AD10FE000380140C1
:104310000044004000480040004C00400050004075
:1043200040F2AB21AFF25840FCF7CEF90DB1012DB0
:1043300000D105E04FF42B71AFF26C40FCF7C4F9EB
:1043400025B1A08A40F02000A08204E0A08A4FF6A8
:10435000DF710840A08270BD70B504460D46F94873
:10436000844205D0F848844202D0F848844200D103
:1043700005E04FF43171AFF2A840FCF7A5F90DB19B
:10438000012D00D105E040F2C521AFF2BC40FCF7A1
:104390009BF925B1A08A40F01000A08204E0A08A19
:1043A0004FF6EF710840A08270BD70B504460D460F
:1043B000E44884420BD0E448844208D0E348844275
:1043C00005D0E348844202D0E248844200D105E0AF
:1043D00040F2DE21AFF20850FCF776F90DB1012D65
:1043E00000D105E040F2DF21AFF21C50FCF76CF980
:1043F00025B1A08A40F00800A08204E0A08A4FF610
:10440000F7710840A08270BD70B504460D46CD48D6
:1044100084420BD0CC48844208D0CC48844205D09A
:10442000CB48844202D0CB48844200D105E040F220
:10443000FD21AFF26450FCF747F90DB1012D00D119
:1044400005E040F2FE21AFF27850FCF73DF925B1CE
:10445000A08940F40040A08103E0A089C0F30E00D1
:10446000A08170BD70B504460D46B64884420BD09D
:10447000B548844208D0B548844205D0B448844247
:1044800002D0B448844200D105E04FF44671AFF247
:10449000C050FCF719F90DB1012D00D105E040F233
:1044A0001931AFF2D450FCF70FF925B1A08A40F4CE
:1044B0000060A08204E0A08A4FF2FF710840A08251
:1044C00070BD70B504460D469E4884420BD09E4890
:1044D000844208D09D48844205D09D48844202D041
:1044E0009C48844200D105E040F23531AFF22060B3
:1044F000FCF7EAF8042D00D005B905E040F23631AA
:10450000AFF23460FCF7E0F8A08A4FF6FB71084088
:10451000A082A08A2843A08270BD70B504460D46D3
:10452000884884420BD08848844208D08748844217
:1045300005D08748844202D08648844200D105E0F5
:104540004FF45271AFF27860FCF7BEF80DB1012D57
:1045500000D105E040F24931AFF28C60FCF7B4F8CD
:1045600025B1A08A40F00200A08204E0A08A4FF6A4
:10457000FD710840A08270BD70B505460C4600264E
:10458000704885420BD07048854208D06F488542FC
:1045900005D06F48854202D06E48854200D105E0C3
:1045A00040F26E31AFF2D860FCF78EF8012C13D0D8
:1045B000802C11D0402C0FD0202C0DD0102C0BD0E3
:1045C000B4F5807F08D0B4F5007F05D0082C03D067
:1045D000042C01D0022C00D105E040F26F31AFF283
:1045E0001070FCF771F8B4F5007F0FD15548854283
:1045F00005D05548854202D05448854200D105E097
:1046000040F27331AFF23870FCF75EF82888204032
:1046100008B1012600E00026304670BD70B50446A2
:104620000D46484884420BD04748844208D047484A
:10463000844205D04648844202D04648844200D194
:1046400005E040F29E31AFF27870FCF73DF84FF68E
:104650009F40284008B905B105E040F29F31AFF214
:104660009070FCF731F805F40070B0F5007F0FD1C1
:104670003448844205D03448844202D033488442CE
:1046800000D105E040F2A331AFF2BC70FCF71CF89A
:10469000E843208070BD2DE9F04705460C46002711
:1046A0000026B046B146274885420BD026488542B1
:1046B00008D02648854205D02548854202D02548A5
:1046C000854200D105E040F2C131AFF2FC70FBF74A
:1046D000FBFF282C20D040F2277084421CD040F2EF
:1046E0002660844218D040F22550844214D040F213
:1046F0002440844210D040F6460084420CD040F65C
:104700006A10844208D0B4F5587F05D0B4F5187FFC
:1047100002D0B4F5B07F00D105E040F2C231AFF66F
:104720005000FBF7D1FF40F66A1084421AD10548C9
:10473000854205D00448854202D0044885420BD109
:1047400010E00000003801400044004000480040F4
:10475000004C00400050004040F2C631AFF69000DF
:10476000FBF7B2FFC4F3421804F01F06012000FA61
:1047700006F6B8F1010F02D1A889064007E0B8F1AA
:10478000020F02D1288A064001E0A88A06402712BB
:10479000012000FA07F7288807401EB117B14FF033
:1047A000010901E04FF000094846BDE8F0872DE916
:1047B000F04104460D4600260027244884420BD0D1
:1047C0002348844208D02348844205D022488442AA
:1047D00002D02248844200D105E040F20A41AFF6FF
:1047E0001010FBF771FF40F2266085420BD040F2BB
:1047F0002550854207D040F64600854203D040F65A
:104800006A10854200D105E040F20B41AFF640103E
:10481000FBF75AFF40F66A1085420FD10B488442DD
:1048200005D00B48844202D00A48844200D105E0FA
:1048300040F20F41AFF66810FBF746FF2E12012041
:10484000B04087B2F8432080BDE8F08100380140D5
:104850000044004000480040004C00400050004030
:10486000704700007CB51D4616460C00009001D034
:104870002044401E074B7B442A466946019030463F
:1048800000F097F905461CB10020694600F0A4F934
:1048900028467CBD6903000010B5044603E0FBF721
:1048A00010FE401C09D014F8010B05490028F6D170
:1048B000BDE810400A20FBF704BE4FF0FF3010BDEA
:1048C000140000202DE9F041074615460E46102041
:1048D00000F062F804000AD06760C4E9026500F0E5
:1048E00057F80168216004600020BDE8F0810120D4
:1048F000FBE710B5203AC0F00B80B1E81850203A21
:10490000A0E81850B1E81850A0E81850BFF4F5AF6F
:104910005FEA027C24BFB1E81850A0E8185044BFF9
:1049200018C918C0BDE810405FEA827C24BF51F866
:10493000043B40F8043B08BF7047D20728BF31F85A
:10494000023B48BF11F8012B28BF20F8023B48BFAB
:1049500000F8012B704770477047704770B5064CE0
:104960007C44064D7D4403E0206820448047241D9C
:10497000AC42F9D170BD0000441E0000441E00008E
:1049800010B500F043FB001D10BD00BFD1170000A3
:10499000004870479007002070B5064600F032FBD3
:1049A000056806F10B0020F00704B4429CBF00200C
:1049B00070BD2B466A68BAB11068A04210D304F1EA
:1049C000080188423CBF5068586007D351681019ED
:1049D00041601168091B016058601460101D70BDB2
:1049E00013465268002AE7D12146284600F016FBFC
:1049F0000028DED170BD70B50446051F00F002FB33
:104A00000068002C14BF446870BD002C18BFAC4275
:104A10003CBF20466468F8D301680A18AA4218BF50
:104A2000456003D12A680546114401602868411990
:104A3000A1421CBF6C6070BD616869602168084458
:104A4000286070BD70B5044685690068C10601D54F
:104A5000302600E02026C00707D070BDD4E9012130
:104A600030469047206A401C20626D1EF6D570BD0E
:104A700070B5044685690078C00707D170BDD4E9D8
:104A8000012120209047206A401C20626D1EF6D52F
:104A900070BD09684A0501D540B27047C905FCD50B
:104AA00000B2704709684A0501D5C0B27047C90510
:104AB000FCD580B2704770B50C460546012A05D07A
:104AC0002878800600D5EA69002302E0012305E08A
:104AD0005B1C934202D2E05C0028F9D1A869E61879
:104AE000C01AA861286A184428622846FFF7AAFF5E
:104AF00004E0D5E9012114F8010B9047B442F8D342
:104B00002846FFF7B5FF70BD2DE9F04106460024A9
:104B100010687529314616A510D0FFF7BAFF002896
:104B200002DA404213A507E031688A0701D512A5D1
:104B300002E0490704D511A5012401E0FFF7B2FF07
:104B400000210A2206F1240709E0B0FBF2FCB0FBC9
:104B5000F2F302FB1C00303078541846491C002840
:104B6000F3D123462A463046BDE8F04100F0E5BACD
:104B7000000000002D0000002B00000020000000BD
:104B800011680268006A530501D508700AE0D30570
:104B900001D5088006E0130603D5C217C1E900025B
:104BA00000E008600120704701694A1C0261087832
:104BB000704700B58FB0CDE901310021059105495D
:104BC0007944CDE903101146684600F031F90FB081
:104BD00000BD0000E5FFFFFF0A6802F8010B0A6054
:104BE0007047D1E900239A4202D2531C0B60107027
:104BF000704700002DE9FF5F15468A460446DFF83E
:104C0000AC80F8440027D8E900103E46CDE90010FA
:104C100010E03AF816106A4602A800F020FD411C88
:104C200007D02178890603D5E269391891420DD859
:104C30000744761C2078800602D5E069B84205DD7D
:104C4000AE42E6DB3AF816000028E2D1A069C01BAC
:104C5000A0612046FFF7F6FED8E90010CDE900106C
:104C6000002017E03AF818106A4602A800F0F7FC96
:104C7000B0F1FF3F81460BD000250DF1080B05E098
:104C8000D4E901211BF8050090476D1C4D45F7D371
:104C900008F10100B0428046E4DB206A384420621B
:104CA0002046FFF7E5FEBDE8FF9F00003619000033
:104CB0002DE9F0418046D21D22F007020025D2E9FD
:104CC0000002F52915A614D0011E72F1000106DAC2
:104CD0000023D0EB030063EB020211A608E0D8F832
:104CE00000108B0701D50FA602E0490701D50EA6DB
:104CF00001251146002408F1240704E000F0D8F94A
:104D000030323A55641C50EA0102F7D12B46324644
:104D100021464046BDE8F04100F00FBA0000000017
:104D20002D0000002B0000002000000030B4002106
:104D300000F1240408E002F00705D208303542EA09
:104D40004372DB086554491C52EA0305F3D1046839
:104D5000002310A2250708D504F020040C4304D03A
:104D6000C46901230CA2641EC46130BC00F0E5B923
:104D700010B5044621461068FFF794FE024620460F
:104D8000BDE810400023D1E7D21D22F00701D1E990
:104D90000023CBE70000000030000000F0B40D4617
:104DA0000188090502D5214C7C4402E01F4C7C445B
:104DB0000E34002100F1240608E002F00F0712096A
:104DC000E75D42EA03721B097754491C52EA030764
:104DD000F3D102780023120704D5702D06D009B153
:104DE000022311342246F0BC00F0A7B9012310348D
:104DF000F8E770B504460D4621461068FFF752FEED
:104E0000024629462046BDE870400023C6E7D21D71
:104E100022F00703D3E90023C0E70368126843F0D8
:104E2000200303600823C3610023B7E7981700003D
:104E30002DE9F05F894604464FF0000ADFF874B1AF
:104E4000FB44C0F820A02046E1688847002874D0C1
:104E5000252806D0D4E901219047206A401C206211
:104E6000F1E700265F462046E1688847202805468E
:104E700007DB312D05D2781910F8200C08B1064354
:104E8000F1E7B00701D526F00406C4F81CA00027FE
:104E9000C4F818A02A2D09D0284601F058F938B3D3
:104EA00004EB8708303DC8F8185019E059F8041B86
:104EB000204604EB87029161E1688847012F05468F
:104EC00018D1E069002820DA26F020061DE0D8F885
:104ED000180000EB800005EB40003038C8F81800DF
:104EE0002046E1688847054601F031F90028EED1F7
:104EF000012F0AD02E2D08D12046E16888477F1C5B
:104F00000546022F46F02006C4DBA069002803DA1C
:104F1000404246F00106A061F00701D026F01006DD
:104F20006C2D0BD0682D09D04C2D39D06A2D35D081
:104F3000742D35D07A2D33D016E038E0E1682F4655
:104F400020468847B842054609D16C2F26D04FF439
:104F50008060E168064320468847054604E06C2FE0
:104F60001AD04FF4807006430DB3A5F14100192803
:104F700002D8203546F400664A4629462046266077
:104F80004E46FBF70FF980B101280BD0F61D26F035
:104F9000070000F1080956E74020E4E78020D8E741
:104FA0000020D6E706F104094DE7284652E7206ABB
:104FB000BDE8F09F281700002DE9F0410646FFF7F5
:104FC000E7FC8046454613E016B1E068B0420ED1DA
:104FD00020682860D4E90101D8F80070884720468D
:104FE000FFF709FDD8F80000B842EBD100E02546F4
:104FF0002C68002CE8D1BDE8F08100000048704723
:10500000580700200048704760070020004870479C
:1050100078070020704770477047704738B50446DE
:105020000A4600206946AFF30080002808BF38BD5B
:1050300002460099204600F05CFB012038BD0120AB
:1050400000F042BCF8B5AFF30080054600200C46E6
:10505000102000BF0646A819A0420DD93246694665
:105060000020AFF30080070008BF00F02DFC00987F
:10507000A04218BF0546C419FFF7C4FF05600746E4
:10508000F01D20F007004619284600F00AF8B44247
:1050900008BFF8BDA21B31463868BDE8F84000F0F3
:1050A00028BB00210160C0E9011070471020704743
:1050B00030B5B0F10A024FEA900E71F100034EEAEA
:1050C000817EB0EB0E0061EB91014FEA101E4EEABB
:1050D000017E10EB0E0041EB11114FEA102E4EEA4B
:1050E000016E10EB0E0041EB11214FEA104E4EEA1B
:1050F000014E10EB0E0041EB1141401841F100014F
:105100004FEAD00040EA41704FEAD10110EB800530
:105110004FEA810444EA907444EB01046D1944EBB6
:105120000404521BA3414FF0000348BF0A3200D5CC
:1051300030BD401C41F1000130BD2DE9F0470D4666
:1051400099469246044600F124080168880604D571
:10515000E06921F01001216000E00120A84201DD9A
:10516000471B00E00027A1697A1902EB0900081A21
:10517000A0612078C00602D42046FFF763FC002619
:1051800008E0D4E901211AF806009047206A401C83
:10519000761C20624E45F4DB2078C0060AD52046F6
:1051A000FFF750FC06E0D4E9012130209047206A47
:1051B000401C2062381EA7F10107F4DC07E0D4E9A7
:1051C000012118F805009047206A401C2062281E23
:1051D000A5F10105F3DC2046FFF74AFC2078000624
:1051E00002D50220BDE8F0870120FBE770472DE9DA
:1051F000FF4F0C461E464FF0FF378BB0D2E900013F
:10520000DDF860800A908A46C1F30A5505B93D462B
:10521000002108464FF00000BAF1000F00F44000F2
:1052200005DA00EB80004FF4400101EA50004FEA3C
:105230009059B9F1010F00DDB9460A9850EA4A00C9
:105240000ED044F61050A5F2FF3545432F14B8F1A7
:10525000000F1ED07542291E1EDDC9F100021CE0A0
:10526000B8F1010F4FF0000001D0302103E0F2430C
:1052700005E02154401CB042FBDB304600220021F7
:1052800021540B99C1F80880C1E900200FB0BDE896
:10529000F08FBD1B6D1CDEE74A4600DA694206A8A6
:1052A00000F082FA06AB93E8070003AB83E807003F
:1052B00050460A9900F078FB8DE80700A0F50050F1
:1052C0001F3800900398002D09DD42F21F014A4665
:1052D000084403A90390684600F0D7FD08E0A0F554
:1052E00000504A461F3803A90390684600F0E1FDCC
:1052F0008DE807000004000C03D04FF0FF30410898
:1053000000E01046B8F1000F03D0002200921546CD
:105310001EE0751E05D4FFF7CBFE303262556D1EC0
:10532000F9D5B3460122084302D000227F1C04E0D5
:105330002078302801D100227F1E002A099786D0CC
:105340001DE0112D07DAFFF7B3FE303262556D1CF8
:1053500050EA0102F5D1084302D00098C8B10EE02E
:105360000021681E05E0235C625C63542254401EE9
:10537000491C8142F7DBAB46A81B401E0990002068
:1053800004F80B000B98099AC0F80880C0E9002BBC
:105390007CE711264FF0000859E72DE9F04F8846C9
:1053A0000446D21D22F0070191B0D1E90001CDE9F8
:1053B0000A0100F0B8FE02460B98C00F01D02D2064
:1053C00007E02068810701D52B2002E0202101EAB7
:1053D000C000032A099001D0072A05DB0346414695
:1053E000204600F0A1F90BE12078800601D5E069A4
:1053F00000E00620B8F1650F814606D0B8F1660FCF
:1054000018D0B8F1670F70D131E00020B9F1110F59
:10541000009001DB112301E009F101030AAA01A9AF
:105420000CA8FFF7E4FEDDE90C70002609F1010588
:10543000834647E001204B4600904FF000470AAA00
:1054400001A90CA8FFF7D3FEDDE90DB00C995D466C
:10545000002610B909F101000D18B9EB050003D4BD
:10546000C0F1FF3609F10105A5EB09002BE0B9F108
:10547000010F01DA4FF001090020B9F1110F00907E
:10548000484601DD112300E003460AAA01A90CA841
:10549000FFF7ADFEDDE90C704D460026834620780F
:1054A00000070AD4AB4500DA5D4601A8012D04DDF2
:1054B000411911F8011C302907D04F4502DA17F1C4
:1054C000040F04DA012082460FE06D1EEEE7002F84
:1054D00002DCED1B3E4403E0781CA84200DD7D1C8D
:1054E000B81B00F1010A4FF000472078000703D4F1
:1054F000AA4501DB4FF0FF3A0021B7F1004F0DF153
:1055000043088DF8431024D002202B23002F01DA0A
:105510007F422D230A21021EA0F1010000DC5FB1B1
:1055200097FBF1FC97FBF1F201FB1C7C17460CF199
:10553000300C08F801CDEEE7A8F1010003702188D6
:10554000090501D5452100E06521A0F1010800F819
:10555000011C09980FA9A1EB0807FF1D00B101204C
:10556000411901EBEA70A1693844081A401EA06194
:105570002078C00602D42046FFF764FA099828B1C3
:10558000D4E901219047206A401C20622078C0069F
:1055900022D52046FFF756FA1EE0002E04DBB34565
:1055A00002DD01A8805D00E03020D4E901219047B0
:1055B000206A401C2062761CAAF101005FEA000A02
:1055C0000AD1FFF723FDC0680168405CD4E90121DE
:1055D0009047206A401C2062281EA5F10105DCDCF2
:1055E00007E0D4E9012118F8010B9047206A401C1C
:1055F0002062381EA7F10107F3DC2046FFF738FAD6
:10560000032011B043E610B5436913B1AFF3008036
:1056100001E0FFF750FA012010BD127800F12401DB
:105620000A7000224A700122EDE711684FF0FF3244
:10563000E9E710B5436913B1AFF3008001E0FFF76C
:10564000D9FA012010BD128800F1240182840022C1
:10565000C2840122EDE711684FF0FF32E9E770B52F
:1056600016460C460546FFF78BF9036893F80101CF
:10567000012806D0FF2C0FD8185D68B101202C70CE
:1056800070BDD3F807013246214603F207130344E5
:105690002846BDE8704018474FF0FF3070BD002825
:1056A00001D0FAF724BF70477546FFF7A7FCAE4656
:1056B00005006946534620F00700854618B020B51E
:1056C000FAF7F0FDBDE820404FF000064FF000076C
:1056D0004FF000084FF0000B21F00701AC46ACE89A
:1056E000C009ACE8C009ACE8C009ACE8C0098D4607
:1056F0007047034640688C46002818BF88423CBF6C
:1057000003464068F8D318681844884207D00CF163
:10571000030020F00700001D411A521A0146081D1F
:105720000A60FFF768B900002DE9F0411F46044602
:1057300003260168072A01F4006004DB08B116A5FE
:1057400005E016A503E008B115A500E015A521F0B8
:1057500010002060A069C01EA0610FB1401EA061B2
:105760002046FFF76FF94FB1D4E901213846904741
:10577000206A401C2062C01C206206E0206AFAE712
:10578000D4E9012115F8010B9047761EF8D2204686
:10579000FFF76EF9BDE8F0814E414E006E616E007C
:1057A000494E4600696E66002DE9F047814616466F
:1057B0008AB0334878440DC88DE80D0030487844ED
:1057C000801C03AC0DC884E80D0041F69B300844F2
:1057D000372190FBF1F290FBF1F5A5F1800501FB7B
:1057E00012041B3C02D56442012000E00020DFF8D7
:1057F00090A080460027FA44AAF1BE0A0DE0E00717
:1058000009D03246684607EB47010AEB810100F0F8
:1058100050FB8DE8070064107F1C002CEFD1184F5F
:105820007F44AC3F18E0E80714D007EB04100DF1FB
:10583000180A90E80E008AE80E00C068F04201D114
:1058400098190890324606A903A800F032FB03AB72
:1058500083E807006D10641C002DE4D132466946D0
:10586000B8F1000F03A802D000F00FFB01E000F038
:1058700020FBC9E90001C9F808200AB0BDE8F0879B
:10588000440E000010B50446AFF300802046BDE88A
:105890001040FAF7F3BC70B505460C460A2000E04C
:1058A0006D1CFAF71EFE35B128780028F8D102E009
:1058B000641CFAF716FE14B120780028F8D1BDE870
:1058C00070400A20FAF70DBE10B500F045F8BDE8AB
:1058D0001040FFF7E4BE00004FF0013C50F8042BED
:1058E00051F8043B9A4221D1A2EB0C03934313EAF3
:1058F000CC1317D150F8042B51F8043B9A4215D120
:10590000A2EB0C03934313EACC130BD150F8042BF6
:1059100051F8043B9A4209D1A2EB0C03934313EADA
:10592000CC13DBD04FF00000704700BFD01A01BA93
:10593000B1FA81F101F0180122FA01F0CB40C1F176
:105940002001DBB2C0B2C01A2CFA01F3D11A914384
:1059500011EAC311E6D1704710B5012805D0002126
:1059600003A0FFF798FF012010BD09A1F8E7000090
:1059700053494752544D454D3A204F7574206F6638
:105980002068656170206D656D6F727900000000A0
:105990003A2048656170206D656D6F727920636F84
:1059A00072727570746564005FEA400C08BF91F014
:1059B000000F4FEA8C234FEAC12243EA51514FEACC
:1059C0001C5018BF00F5F0404FEA300018BF41F0FE
:1059D00000415FEA6C5C00F02980BCF1FF3F08BF2A
:1059E00040F080407047130C06BF12044FF0100CBB
:1059F0004FF0000C130E04BF12020CF1080C130F31
:105A000004BF12010CF1040C930F04BF92000CF1BF
:105A1000020CD30F04BF52000CF1010C11464FF0E1
:105A20000002A0F11F00A0EB0C00704711F0004F26
:105A300008BF704731F000413FF4D5AF0B0C06BFF3
:105A400009044FF0100C4FF0000C0B0E04BF0902BC
:105A50000CF1080C0B0F04BF09010CF1040C8B0FA7
:105A600004BF89000CF1020CCB0F04BF49000CF1FC
:105A7000010CCCF12003A0EB0C0022FA03F302FA94
:105A80000CF241EA030100F10100704720F07F4C65
:105A900080EA030023F07F47ACEB070303F57C5358
:105AA00000F0004003F1FF032DE980494FEA154B58
:105AB00009B44FEA144325EA0B4E24EA03480FF2D7
:105AC000042606EB132749083E785FEA320203FBFF
:105AD0000667C7F5000707FB06F64FEA54374FEA9B
